:100000000C9462000C948A000C948A000C948A0070
:100010000C948A000C948A000C948A000C948A0038
:100020000C948A000C948A000C948A000C948A0028
:100030000C948A000C948A000C948A000C948A0018
:100040000C949D030C948A000C946B030C94450350
:100050000C948A000C948A000C948A000C948A00F8
:100060000C948A000C948A000000000023002600F3
:10007000290000000000240027002A0000000000E2
:10008000250028002B0004040404040404040202D4
:100090000202020203030303030301020408102007
:1000A0004080010204081020010204081020000012
:1000B0000008000201000003040700000000000027
:1000C0000000D40411241FBECFEFD8E0DEBFCDBFA7
:1000D00011E0A0E0B1E0ECE1FAE002C005900D9281
:1000E000A631B107D9F721E0A6E1B1E001C01D9228
:1000F000A43DB207E1F710E0C2E6D0E004C02197CA
:10010000FE010E940105C136D107C9F70E94E7032D
:100110000C940C050C940000CF92DF92EF92FF92AA
:100120000F931F93CF93DF936C017A018B01C0E093
:10013000D0E0CE15DF0589F0D8016D918D01D60193
:10014000ED91FC910190F081E02DC6010995892B7C
:1001500011F47E0102C02196ECCFC701DF91CF914F
:100160001F910F91FF90EF90DF90CF900895089529
:1001700080E090E00895FC01538D448D252F30E000
:10018000842F90E0821B930B541710F0CF960895A4
:1001900001970895FC01918D828D981761F0828DF1
:1001A000DF01A80FB11D5D968C91928D9F5F9F73AB
:1001B000928F90E008958FEF9FEF0895FC01918D4D
:1001C000828D981731F0828DE80FF11D858D90E0BA
:1001D00008958FEF9FEF0895FC01918D228D892F57
:1001E00090E0805C9F4F821B91098F73992708953F
:1001F00087E391E00E94EC0021E0892B09F420E0E4
:10020000822F0895FC01848DDF01A80FB11DA35A30
:10021000BF4F2C91848D90E001968F739927848F26
:10022000A689B7892C93A089B1898C9180648C931D
:10023000938D848D981306C00288F389E02D808108
:100240008F7D80830895EF92FF920F931F93CF933A
:10025000DF93EC0181E0888F9B8D8C8D981305C016
:10026000E889F989808185FD24C0F62E0B8D10E088
:100270000F5F1F4F0F731127E02E8C8DE8120CC0FB
:100280000FB607FCFACFE889F989808185FFF5CFA1
:10029000CE010E940201F1CF8B8DFE01E80FF11D0E
:1002A000E35AFF4FF0820B8FEA89FB8980818062DD
:1002B00007C0EE89FF896083E889F98980818064BD
:1002C000808381E090E0DF91CF911F910F91FF90AB
:1002D000EF900895CF93DF93EC01888D8823C9F0C8
:1002E000EA89FB89808185FD05C0A889B9898C913F
:1002F00086FD0FC00FB607FCF5CF808185FFF2CFDA
:10030000A889B9898C9185FFEDCFCE010E940201A9
:10031000E7CFDF91CF91089580E090E0892B29F01D
:100320000E94F80081110C9400000895833081F040
:1003300028F4813099F08230A1F008958730A9F037
:100340008830B9F08430D1F4809180008F7D03C073
:10035000809180008F7780938000089584B58F7797
:1003600002C084B58F7D84BD08958091B0008F77E1
:1003700003C08091B0008F7D8093B00008951F93DB
:10038000CF93DF93282F30E0F901E255FF4F84919E
:10039000F901E656FF4FD491F901EA57FF4FC49196
:1003A000CC23C9F0162F81110E949601EC2FF0E0AA
:1003B000EE0FFF1FE458FF4FA591B4918FB7F8944B
:1003C000111105C09C91ED2FE095E92302C0EC913D
:1003D000ED2BEC938FBFDF91CF911F910895CF93B9
:1003E000DF9390E0FC01E656FF4F2491FC01EA57B1
:1003F000FF4F8491882361F190E0880F991FFC01E1
:10040000EE58FF4FC591D491FC01E458FF4FA591E0
:10041000B491611109C09FB7F89488812095822317
:100420008883EC912E230BC0623061F49FB7F8945F
:100430003881822F809583238883EC912E2B2C93F7
:100440009FBF06C08FB7F894E8812E2B28838FBFFB
:10045000DF91CF910895CF93DF9360E085E00E9414
:10046000BF01CFE2D1E060E087E00E94BF016A9166
:1004700086E00E94BF0161E087E00E94BF0181E049
:10048000CF31D80781F761E085E0DF91CF910C94FF
:10049000BF014F925F926F927F928F929F92AF9225
:1004A000BF92CF92DF92EF92FF920F931F93CF9361
:1004B000DF9361E089E00E94BF0160E088E00E9474
:1004C000BF018FE090E00197F1F761E088E00E94C2
:1004D000BF0160E089E00E94BF01CFE0D0E0412C85
:1004E000512C320139EBE32E30E0F32E45EAC42ED5
:1004F00040E0D42E51E9A52E50E0B52E0FE010E0DB
:10050000F7018491F6019490F50184908820A9F078
:1005100081110E949601882D90E0880F991F8859BB
:100520009F4FFC01A591B4918C91982231E020E07D
:1005300009F430E0832F922F02C080E090E0092E72
:10054000000CAA0BBB0B0C2E04C0880F991FAA1F0E
:10055000BB1F0A94D2F7482A592A6A2A7B2A61E0EB
:100560008CE00E94BF01C8010197F1F760E08CE0C8
:100570000E94BF01219708F0C3CFC301B201DF91F0
:10058000CF911F910F91FF90EF90DF90CF90BF9090
:10059000AF909F908F907F906F905F904F90089555
:1005A000009769F0FC0101900020E9F73197AF0155
:1005B000481B590BBC0187E391E00C948C0080E050
:1005C00090E008950E940705DF92EF92FF920F934B
:1005D0001F93CF93DF93CDB7DEB7A1970FB6F894F3
:1005E000DEBF0FBECDBF0FE111E0E12CF12C8091F9
:1005F000330190913401A0913501B09136010E2C58
:1006000004C0B695A795979587950A94D2F78170FF
:100610009927AA27BB2719A2805D88A3CE018096BF
:100620000E94D0028091330190913401A091350154
:10063000B09136010E2C04C0B695A7959795879575
:100640000A94D2F78170F80181938F010E942B02E6
:10065000FFEFEF1AFF0A80E1E816F10441F683E1AB
:1006600091E00E94D00282E191E00E94D002A19626
:100670000FB6F894DEBF0FBECDBFDF91CF911F91B3
:100680000F91FF90EF90DF9008951F920F920FB699
:100690000F9211242F933F934F935F936F937F9308
:1006A0008F939F93AF93BF93EF93FF9387E391E073
:1006B0000E940201FF91EF91BF91AF919F918F91A5
:1006C0007F916F915F914F913F912F910F900FBE4E
:1006D0000F901F9018951F920F920FB60F92112432
:1006E0002F938F939F93EF93FF93E0914701F091A6
:1006F00048018081E0914D01F0914E0182FD12C0D0
:100700009081809150018F5F8F73209151018217EA
:1007100051F0E0915001F0E0E95CFE4F958F80933D
:10072000500101C08081FF91EF919F918F912F9196
:100730000F900FBE0F901F9018951F920F920FB63B
:100740000F9211242F933F938F939F93AF93BF9357
:1007500080911B0190911C01A0911D01B0911E017F
:1007600030911A0123E0230F2D3720F40196A11DAB
:10077000B11D05C026E8230F0296A11DB11D2093CF
:100780001A0180931B0190931C01A0931D01B0934B
:100790001E018091160190911701A0911801B0914E
:1007A00019010196A11DB11D8093160190931701A7
:1007B000A0931801B0931901BF91AF919F918F91B0
:1007C0003F912F910F900FBE0F901F901895789426
:1007D00084B5826084BD84B5816084BD85B5826046
:1007E00085BD85B5816085BD80916E0081608093F7
:1007F0006E00109281008091810082608093810060
:10080000809181008160809381008091800081606F
:10081000809380008091B10084608093B1008091CA
:10082000B00081608093B00080917A0084608093F2
:100830007A0080917A00826080937A0080917A00B9
:10084000816080937A0080917A00806880937A003A
:100850001092C100E0914701F091480182E080834D
:10086000E0914301F09144011082E0914501F09143
:1008700046018FEC808310924F01E0914B01F09183
:100880004C0186E08083E0914901F0914A0180812A
:1008900080618083E0914901F0914A018081886004
:1008A0008083E0914901F0914A01808180688083D2
:1008B000E0914901F0914A0180818F7D808361E060
:1008C00088E00E94EF0161E089E00E94EF0161E0B1
:1008D0008CE00E94EF0160E08BE00E94EF0160E09D
:1008E0008CE00E94BF0161E088E00E94BF0161E0EE
:1008F00086E00E94EF0161E085E00E94EF0161E087
:1009000087E00E94EF01EFE2F1E0129281E0EF3127
:10091000F807D9F70E942B020E9449026093330125
:100920007093340180933501909336010E94E40264
:100930008091330190913401A0913501B09136013D
:1009400080932F0190933001A0933101B093320135
:100950000E94490260933301709334018093350102
:100960009093360100912F011091300120913101B7
:1009700030913201601771078207930791F00E944E
:10098000E4028091330190913401A0913501B0913E
:10099000360180932F0190933001A0933101B093E1
:1009A00032010E948C01D4CFE7E3F1E0138212827E
:1009B00088EE93E0A0E0B0E084839583A683B783BC
:1009C00084E091E09183808385EC90E09587848733
:1009D00084EC90E09787868780EC90E0918B808B09
:1009E00081EC90E0938B828B82EC90E0958B848BF2
:1009F00086EC90E0978B868B118E128E138E148E60
:100A00000895EE0FFF1F0590F491E02D099481E009
:0C0A100090E0F8940C940C05F894FFCFD3
:100A1C000000000023018C00BB006A01EC00CA003E
:060A2C00DE000D0A0000CF
:00000001FF
